{
    "contractName": "LetsAskNftContract",
    "abi": [
        {
            "inputs": [],
            "stateMutability": "nonpayable",
            "type": "constructor"
        },
        {
            "anonymous": false,
            "inputs": [
                {
                    "indexed": true,
                    "internalType": "address",
                    "name": "owner",
                    "type": "address"
                },
                {
                    "indexed": true,
                    "internalType": "address",
                    "name": "approved",
                    "type": "address"
                },
                {
                    "indexed": true,
                    "internalType": "uint256",
                    "name": "tokenId",
                    "type": "uint256"
                }
            ],
            "name": "Approval",
            "type": "event"
        },
        {
            "anonymous": false,
            "inputs": [
                {
                    "indexed": true,
                    "internalType": "address",
                    "name": "owner",
                    "type": "address"
                },
                {
                    "indexed": true,
                    "internalType": "address",
                    "name": "operator",
                    "type": "address"
                },
                {
                    "indexed": false,
                    "internalType": "bool",
                    "name": "approved",
                    "type": "bool"
                }
            ],
            "name": "ApprovalForAll",
            "type": "event"
        },
        {
            "anonymous": false,
            "inputs": [
                {
                    "indexed": true,
                    "internalType": "address",
                    "name": "from",
                    "type": "address"
                },
                {
                    "indexed": true,
                    "internalType": "address",
                    "name": "to",
                    "type": "address"
                },
                {
                    "indexed": true,
                    "internalType": "uint256",
                    "name": "tokenId",
                    "type": "uint256"
                }
            ],
            "name": "Transfer",
            "type": "event"
        },
        {
            "inputs": [
                {
                    "internalType": "address",
                    "name": "to",
                    "type": "address"
                },
                {
                    "internalType": "uint256",
                    "name": "tokenId",
                    "type": "uint256"
                }
            ],
            "name": "approve",
            "outputs": [],
            "stateMutability": "nonpayable",
            "type": "function"
        },
        {
            "inputs": [
                {
                    "internalType": "address",
                    "name": "owner",
                    "type": "address"
                }
            ],
            "name": "balanceOf",
            "outputs": [
                {
                    "internalType": "uint256",
                    "name": "",
                    "type": "uint256"
                }
            ],
            "stateMutability": "view",
            "type": "function"
        },
        {
            "inputs": [
                {
                    "internalType": "uint256",
                    "name": "tokenId",
                    "type": "uint256"
                }
            ],
            "name": "getApproved",
            "outputs": [
                {
                    "internalType": "address",
                    "name": "",
                    "type": "address"
                }
            ],
            "stateMutability": "view",
            "type": "function"
        },
        {
            "inputs": [
                {
                    "internalType": "address",
                    "name": "owner",
                    "type": "address"
                },
                {
                    "internalType": "address",
                    "name": "operator",
                    "type": "address"
                }
            ],
            "name": "isApprovedForAll",
            "outputs": [
                {
                    "internalType": "bool",
                    "name": "",
                    "type": "bool"
                }
            ],
            "stateMutability": "view",
            "type": "function"
        },
        {
            "inputs": [
                {
                    "internalType": "string",
                    "name": "to",
                    "type": "string"
                },
                {
                    "internalType": "string",
                    "name": "data",
                    "type": "string"
                }
            ],
            "name": "mintLetsAskNft",
            "outputs": [],
            "stateMutability": "nonpayable",
            "type": "function"
        },
        {
            "inputs": [],
            "name": "name",
            "outputs": [
                {
                    "internalType": "string",
                    "name": "",
                    "type": "string"
                }
            ],
            "stateMutability": "view",
            "type": "function"
        },
        {
            "inputs": [
                {
                    "internalType": "uint256",
                    "name": "tokenId",
                    "type": "uint256"
                }
            ],
            "name": "ownerOf",
            "outputs": [
                {
                    "internalType": "address",
                    "name": "",
                    "type": "address"
                }
            ],
            "stateMutability": "view",
            "type": "function"
        },
        {
            "inputs": [
                {
                    "internalType": "address",
                    "name": "from",
                    "type": "address"
                },
                {
                    "internalType": "address",
                    "name": "to",
                    "type": "address"
                },
                {
                    "internalType": "uint256",
                    "name": "tokenId",
                    "type": "uint256"
                }
            ],
            "name": "safeTransferFrom",
            "outputs": [],
            "stateMutability": "nonpayable",
            "type": "function"
        },
        {
            "inputs": [
                {
                    "internalType": "address",
                    "name": "from",
                    "type": "address"
                },
                {
                    "internalType": "address",
                    "name": "to",
                    "type": "address"
                },
                {
                    "internalType": "uint256",
                    "name": "tokenId",
                    "type": "uint256"
                },
                {
                    "internalType": "bytes",
                    "name": "_data",
                    "type": "bytes"
                }
            ],
            "name": "safeTransferFrom",
            "outputs": [],
            "stateMutability": "nonpayable",
            "type": "function"
        },
        {
            "inputs": [
                {
                    "internalType": "address",
                    "name": "operator",
                    "type": "address"
                },
                {
                    "internalType": "bool",
                    "name": "approved",
                    "type": "bool"
                }
            ],
            "name": "setApprovalForAll",
            "outputs": [],
            "stateMutability": "nonpayable",
            "type": "function"
        },
        {
            "inputs": [
                {
                    "internalType": "bytes4",
                    "name": "interfaceId",
                    "type": "bytes4"
                }
            ],
            "name": "supportsInterface",
            "outputs": [
                {
                    "internalType": "bool",
                    "name": "",
                    "type": "bool"
                }
            ],
            "stateMutability": "view",
            "type": "function"
        },
        {
            "inputs": [],
            "name": "symbol",
            "outputs": [
                {
                    "internalType": "string",
                    "name": "",
                    "type": "string"
                }
            ],
            "stateMutability": "view",
            "type": "function"
        },
        {
            "inputs": [
                {
                    "internalType": "uint256",
                    "name": "tokenId",
                    "type": "uint256"
                }
            ],
            "name": "tokenURI",
            "outputs": [
                {
                    "internalType": "string",
                    "name": "",
                    "type": "string"
                }
            ],
            "stateMutability": "view",
            "type": "function"
        },
        {
            "inputs": [
                {
                    "internalType": "address",
                    "name": "from",
                    "type": "address"
                },
                {
                    "internalType": "address",
                    "name": "to",
                    "type": "address"
                },
                {
                    "internalType": "uint256",
                    "name": "tokenId",
                    "type": "uint256"
                }
            ],
            "name": "transferFrom",
            "outputs": [],
            "stateMutability": "nonpayable",
            "type": "function"
        }
    ],
    "bytecode": "6101e060405261012f60808181529062001ff860a03980516200002b916008916020909101906200015c565b503480156200003957600080fd5b5060408051808201825260078152664c65747341736b60c81b6020808301918252835180850190945260028452614c4160f01b90840152815191929162000083916000916200015c565b508051620000999060019060208401906200015c565b505050620000e76040518060400160405280601e81526020017f4c65747341736b4e6674436f6e747261637420436f6e7374727563746f720000815250620000ed60201b620009521760201c565b62000297565b620001388160405160240162000104919062000202565b60408051601f198184030181529190526020810180516001600160e01b0390811663104c13eb60e21b179091526200013b16565b50565b80516a636f6e736f6c652e6c6f67602083016000808483855afa5050505050565b8280546200016a906200025a565b90600052602060002090601f0160209004810192826200018e5760008555620001d9565b82601f10620001a957805160ff1916838001178555620001d9565b82800160010185558215620001d9579182015b82811115620001d9578251825591602001919060010190620001bc565b50620001e7929150620001eb565b5090565b5b80821115620001e75760008155600101620001ec565b600060208083528351808285015260005b81811015620002315785810183015185820160400152820162000213565b8181111562000244576000604083870101525b50601f01601f1916929092016040019392505050565b600181811c908216806200026f57607f821691505b602082108114156200029157634e487b7160e01b600052602260045260246000fd5b50919050565b611d5180620002a76000396000f3fe608060405234801561001057600080fd5b50600436106100ea5760003560e01c80636352211e1161008c578063a22cb46511610066578063a22cb465146101e1578063b88d4fde146101f4578063c87b56dd14610207578063e985e9c51461021a57600080fd5b80636352211e146101a557806370a08231146101b857806395d89b41146101d957600080fd5b8063095ea7b3116100c8578063095ea7b31461015757806323b872dd1461016c5780632862b1471461017f57806342842e0e1461019257600080fd5b806301ffc9a7146100ef57806306fdde0314610117578063081812fc1461012c575b600080fd5b6101026100fd366004611503565b610256565b60405190151581526020015b60405180910390f35b61011f6102a8565b60405161010e9190611578565b61013f61013a36600461158b565b61033a565b6040516001600160a01b03909116815260200161010e565b61016a6101653660046115c0565b6103c7565b005b61016a61017a3660046115ea565b6104dd565b61016a61018d3660046116d2565b61050e565b61016a6101a03660046115ea565b61066c565b61013f6101b336600461158b565b610687565b6101cb6101c6366004611736565b6106fe565b60405190815260200161010e565b61011f610785565b61016a6101ef366004611751565b610794565b61016a61020236600461178d565b6107a3565b61011f61021536600461158b565b6107db565b610102610228366004611809565b6001600160a01b03918216600090815260056020908152604080832093909416825291909152205460ff1690565b60006001600160e01b031982166380ac58cd60e01b148061028757506001600160e01b03198216635b5e139f60e01b145b806102a257506301ffc9a760e01b6001600160e01b03198316145b92915050565b6060600080546102b79061183c565b80601f01602080910402602001604051908101604052809291908181526020018280546102e39061183c565b80156103305780601f1061030557610100808354040283529160200191610330565b820191906000526020600020905b81548152906001019060200180831161031357829003601f168201915b5050505050905090565b600061034582610998565b6103ab5760405162461bcd60e51b815260206004820152602c60248201527f4552433732313a20617070726f76656420717565727920666f72206e6f6e657860448201526b34b9ba32b73a103a37b5b2b760a11b60648201526084015b60405180910390fd5b506000908152600460205260409020546001600160a01b031690565b60006103d282610687565b9050806001600160a01b0316836001600160a01b031614156104405760405162461bcd60e51b815260206004820152602160248201527f4552433732313a20617070726f76616c20746f2063757272656e74206f776e656044820152603960f91b60648201526084016103a2565b336001600160a01b038216148061045c575061045c8133610228565b6104ce5760405162461bcd60e51b815260206004820152603860248201527f4552433732313a20617070726f76652063616c6c6572206973206e6f74206f7760448201527f6e6572206e6f7220617070726f76656420666f7220616c6c000000000000000060648201526084016103a2565b6104d883836109b5565b505050565b6104e73382610a23565b6105035760405162461bcd60e51b81526004016103a290611877565b6104d8838383610b09565b60008151116105585760405162461bcd60e51b8152602060048201526016602482015275115b5c1d1e481c5d595cdd1a5bdb881d1bc81b5a5b9d60521b60448201526064016103a2565b600061056360075490565b9050600060088360405160200161057b9291906118e4565b6040516020818303038152906040529050600082856040516020016105a19291906119a7565b604051602081830303815290604052905060006105e6826105c185610ca5565b6040516020016105d29291906119eb565b604051602081830303815290604052610ca5565b90506000816040516020016105fb9190611ab5565b60405160208183030381529060405290506106163386610e0b565b6106208582610e25565b61062e600780546001019055565b6106636040518060400160405280601281526020017113195d1cd05cdac8139195081b5a5b9d195960721b8152508633610eb0565b50505050505050565b6104d8838383604051806020016040528060008152506107a3565b6000818152600260205260408120546001600160a01b0316806102a25760405162461bcd60e51b815260206004820152602960248201527f4552433732313a206f776e657220717565727920666f72206e6f6e657869737460448201526832b73a103a37b5b2b760b91b60648201526084016103a2565b60006001600160a01b0382166107695760405162461bcd60e51b815260206004820152602a60248201527f4552433732313a2062616c616e636520717565727920666f7220746865207a65604482015269726f206164647265737360b01b60648201526084016103a2565b506001600160a01b031660009081526003602052604090205490565b6060600180546102b79061183c565b61079f338383610ef7565b5050565b6107ad3383610a23565b6107c95760405162461bcd60e51b81526004016103a290611877565b6107d584848484610fc6565b50505050565b60606107e682610998565b61084c5760405162461bcd60e51b815260206004820152603160248201527f45524337323155524953746f726167653a2055524920717565727920666f72206044820152703737b732bc34b9ba32b73a103a37b5b2b760791b60648201526084016103a2565b600082815260066020526040812080546108659061183c565b80601f01602080910402602001604051908101604052809291908181526020018280546108919061183c565b80156108de5780601f106108b3576101008083540402835291602001916108de565b820191906000526020600020905b8154815290600101906020018083116108c157829003601f168201915b5050505050905060006108fc60408051602081019091526000815290565b905080516000141561090f575092915050565b815115610941578082604051602001610929929190611afa565b60405160208183030381529060405292505050919050565b61094a84610ff9565b949350505050565b610995816040516024016109669190611578565b60408051601f198184030181529190526020810180516001600160e01b031663104c13eb60e21b1790526110d1565b50565b6000908152600260205260409020546001600160a01b0316151590565b600081815260046020526040902080546001600160a01b0319166001600160a01b03841690811790915581906109ea82610687565b6001600160a01b03167f8c5be1e5ebec7d5bd14f71427d1e84f3dd0314c0f7b2291e5b200ac8c7c3b92560405160405180910390a45050565b6000610a2e82610998565b610a8f5760405162461bcd60e51b815260206004820152602c60248201527f4552433732313a206f70657261746f7220717565727920666f72206e6f6e657860448201526b34b9ba32b73a103a37b5b2b760a11b60648201526084016103a2565b6000610a9a83610687565b9050806001600160a01b0316846001600160a01b03161480610ad55750836001600160a01b0316610aca8461033a565b6001600160a01b0316145b8061094a57506001600160a01b0380821660009081526005602090815260408083209388168352929052205460ff1661094a565b826001600160a01b0316610b1c82610687565b6001600160a01b031614610b805760405162461bcd60e51b815260206004820152602560248201527f4552433732313a207472616e736665722066726f6d20696e636f72726563742060448201526437bbb732b960d91b60648201526084016103a2565b6001600160a01b038216610be25760405162461bcd60e51b8152602060048201526024808201527f4552433732313a207472616e7366657220746f20746865207a65726f206164646044820152637265737360e01b60648201526084016103a2565b610bed6000826109b5565b6001600160a01b0383166000908152600360205260408120805460019290610c16908490611b3f565b90915550506001600160a01b0382166000908152600360205260408120805460019290610c44908490611b56565b909155505060008181526002602052604080822080546001600160a01b0319166001600160a01b0386811691821790925591518493918716917fddf252ad1be2c89b69c2b068fc378daa952ba7f163c4a11628f55a4df523b3ef91a4505050565b6060815160001415610cc557505060408051602081019091526000815290565b6000604051806060016040528060408152602001611cdc6040913990506000600384516002610cf49190611b56565b610cfe9190611b84565b610d09906004611b98565b90506000610d18826020611b56565b67ffffffffffffffff811115610d3057610d30611626565b6040519080825280601f01601f191660200182016040528015610d5a576020820181803683370190505b509050818152600183018586518101602084015b81831015610dc6576003830192508251603f8160121c168501518253600182019150603f81600c1c168501518253600182019150603f8160061c168501518253600182019150603f8116850151825350600101610d6e565b600389510660018114610de05760028114610df157610dfd565b613d3d60f01b600119830152610dfd565b603d60f81b6000198301525b509398975050505050505050565b61079f8282604051806020016040528060008152506110f2565b610e2e82610998565b610e915760405162461bcd60e51b815260206004820152602e60248201527f45524337323155524953746f726167653a2055524920736574206f66206e6f6e60448201526d32bc34b9ba32b73a103a37b5b2b760911b60648201526084016103a2565b600082815260066020908152604090912082516104d892840190611454565b6104d8838383604051602401610ec893929190611bb7565b60408051601f198184030181529190526020810180516001600160e01b031663e3849f7960e01b1790526110d1565b816001600160a01b0316836001600160a01b03161415610f595760405162461bcd60e51b815260206004820152601960248201527f4552433732313a20617070726f766520746f2063616c6c65720000000000000060448201526064016103a2565b6001600160a01b03838116600081815260056020908152604080832094871680845294825291829020805460ff191686151590811790915591519182527f17307eab39ab6107e8899845ad3d59bd9653f200f220920489ca2b5937696c31910160405180910390a3505050565b610fd1848484610b09565b610fdd84848484611125565b6107d55760405162461bcd60e51b81526004016103a290611bea565b606061100482610998565b6110685760405162461bcd60e51b815260206004820152602f60248201527f4552433732314d657461646174613a2055524920717565727920666f72206e6f60448201526e3732bc34b9ba32b73a103a37b5b2b760891b60648201526084016103a2565b600061107f60408051602081019091526000815290565b9050600081511161109f57604051806020016040528060008152506110ca565b806110a984611223565b6040516020016110ba929190611afa565b6040516020818303038152906040525b9392505050565b80516a636f6e736f6c652e6c6f67602083016000808483855afa5050505050565b6110fc8383611321565b6111096000848484611125565b6104d85760405162461bcd60e51b81526004016103a290611bea565b60006001600160a01b0384163b1561121857604051630a85bd0160e11b81526001600160a01b0385169063150b7a0290611169903390899088908890600401611c3c565b6020604051808303816000875af19250505080156111a4575060408051601f3d908101601f191682019092526111a191810190611c79565b60015b6111fe573d8080156111d2576040519150601f19603f3d011682016040523d82523d6000602084013e6111d7565b606091505b5080516111f65760405162461bcd60e51b81526004016103a290611bea565b805181602001fd5b6001600160e01b031916630a85bd0160e11b14905061094a565b506001949350505050565b6060816112475750506040805180820190915260018152600360fc1b602082015290565b8160005b8115611271578061125b81611c96565b915061126a9050600a83611b84565b915061124b565b60008167ffffffffffffffff81111561128c5761128c611626565b6040519080825280601f01601f1916602001820160405280156112b6576020820181803683370190505b5090505b841561094a576112cb600183611b3f565b91506112d8600a86611cb1565b6112e3906030611b56565b60f81b8183815181106112f8576112f8611cc5565b60200101906001600160f81b031916908160001a90535061131a600a86611b84565b94506112ba565b6001600160a01b0382166113775760405162461bcd60e51b815260206004820181905260248201527f4552433732313a206d696e7420746f20746865207a65726f206164647265737360448201526064016103a2565b61138081610998565b156113cd5760405162461bcd60e51b815260206004820152601c60248201527f4552433732313a20746f6b656e20616c7265616479206d696e7465640000000060448201526064016103a2565b6001600160a01b03821660009081526003602052604081208054600192906113f6908490611b56565b909155505060008181526002602052604080822080546001600160a01b0319166001600160a01b03861690811790915590518392907fddf252ad1be2c89b69c2b068fc378daa952ba7f163c4a11628f55a4df523b3ef908290a45050565b8280546114609061183c565b90600052602060002090601f01602090048101928261148257600085556114c8565b82601f1061149b57805160ff19168380011785556114c8565b828001600101855582156114c8579182015b828111156114c85782518255916020019190600101906114ad565b506114d49291506114d8565b5090565b5b808211156114d457600081556001016114d9565b6001600160e01b03198116811461099557600080fd5b60006020828403121561151557600080fd5b81356110ca816114ed565b60005b8381101561153b578181015183820152602001611523565b838111156107d55750506000910152565b60008151808452611564816020860160208601611520565b601f01601f19169290920160200192915050565b6020815260006110ca602083018461154c565b60006020828403121561159d57600080fd5b5035919050565b80356001600160a01b03811681146115bb57600080fd5b919050565b600080604083850312156115d357600080fd5b6115dc836115a4565b946020939093013593505050565b6000806000606084860312156115ff57600080fd5b611608846115a4565b9250611616602085016115a4565b9150604084013590509250925092565b634e487b7160e01b600052604160045260246000fd5b600067ffffffffffffffff8084111561165757611657611626565b604051601f8501601f19908116603f0116810190828211818310171561167f5761167f611626565b8160405280935085815286868601111561169857600080fd5b858560208301376000602087830101525050509392505050565b600082601f8301126116c357600080fd5b6110ca8383356020850161163c565b600080604083850312156116e557600080fd5b823567ffffffffffffffff808211156116fd57600080fd5b611709868387016116b2565b9350602085013591508082111561171f57600080fd5b5061172c858286016116b2565b9150509250929050565b60006020828403121561174857600080fd5b6110ca826115a4565b6000806040838503121561176457600080fd5b61176d836115a4565b91506020830135801515811461178257600080fd5b809150509250929050565b600080600080608085870312156117a357600080fd5b6117ac856115a4565b93506117ba602086016115a4565b925060408501359150606085013567ffffffffffffffff8111156117dd57600080fd5b8501601f810187136117ee57600080fd5b6117fd8782356020840161163c565b91505092959194509250565b6000806040838503121561181c57600080fd5b611825836115a4565b9150611833602084016115a4565b90509250929050565b600181811c9082168061185057607f821691505b6020821081141561187157634e487b7160e01b600052602260045260246000fd5b50919050565b60208082526031908201527f4552433732313a207472616e736665722063616c6c6572206973206e6f74206f6040820152701ddb995c881b9bdc88185c1c1c9bdd9959607a1b606082015260800190565b600081516118da818560208601611520565b9290920192915050565b600080845481600182811c91508083168061190057607f831692505b602080841082141561192057634e487b7160e01b86526022600452602486fd5b818015611934576001811461194557611972565b60ff19861689528489019650611972565b60008b81526020902060005b8681101561196a5781548b820152908501908301611951565b505084890196505b50505050505061199e61198582866118c8565b6c1e17ba32bc3a1f1e17b9bb339f60991b8152600d0190565b95945050505050565b6a028bab2b9ba34b7b71011960ad1b815282600b820152600160fd1b602b820152600082516119dd81602c850160208701611520565b91909101602c019392505050565b693d913730b6b2911d101160b11b81528251600090611a1181600a850160208801611520565b7f222c20226465736372697074696f6e223a20224c6574732041736b202d205175600a918401918201527f657374696f6e20746865207374617475732051756f222c2022696d616765223a602a8201527f2022646174613a696d6167652f7376672b786d6c3b6261736536342c00000000604a8201528351611a9a816066840160208801611520565b61227d60f01b60669290910191820152606801949350505050565b7f646174613a6170706c69636174696f6e2f6a736f6e3b6261736536342c000000815260008251611aed81601d850160208701611520565b91909101601d0192915050565b60008351611b0c818460208801611520565b835190830190611b20818360208801611520565b01949350505050565b634e487b7160e01b600052601160045260246000fd5b600082821015611b5157611b51611b29565b500390565b60008219821115611b6957611b69611b29565b500190565b634e487b7160e01b600052601260045260246000fd5b600082611b9357611b93611b6e565b500490565b6000816000190483118215151615611bb257611bb2611b29565b500290565b606081526000611bca606083018661154c565b6020830194909452506001600160a01b0391909116604090910152919050565b60208082526032908201527f4552433732313a207472616e7366657220746f206e6f6e20455243373231526560408201527131b2b4bb32b91034b6b83632b6b2b73a32b960711b606082015260800190565b6001600160a01b0385811682528416602082015260408101839052608060608201819052600090611c6f9083018461154c565b9695505050505050565b600060208284031215611c8b57600080fd5b81516110ca816114ed565b6000600019821415611caa57611caa611b29565b5060010190565b600082611cc057611cc0611b6e565b500690565b634e487b7160e01b600052603260045260246000fdfe4142434445464748494a4b4c4d4e4f505152535455565758595a6162636465666768696a6b6c6d6e6f707172737475767778797a303132333435363738392b2fa26469706673582212209a70fab9b2c2016578c161eacb4f533f574459d80a3aeb70c92efda454374aa664736f6c634300080b00333c73766720786d6c6e733d27687474703a2f2f7777772e77332e6f72672f323030302f73766727207072657365727665417370656374526174696f3d27784d696e594d696e206d656574272076696577426f783d273020302033353020333530273e3c7374796c653e2e62617365207b2066696c6c3a2077686974653b20666f6e742d66616d696c793a2073657269663b20666f6e742d73697a653a20323470783b207d3c2f7374796c653e3c726563742077696474683d273130302527206865696768743d2731303025272066696c6c3d27626c61636b27202f3e3c7465787420783d273530252720793d273530252720636c6173733d27626173652720646f6d696e616e742d626173656c696e653d276d6964646c652720746578742d616e63686f723d276d6964646c65273e",
    "sourcePath": "/Users/vigneshwaran/apps/blockchain/letsask/contract/contracts/LetsAskNftContract.sol",
    "compiler": {
        "name": "solc",
        "version": "0.8.11+commit.d7f03943"
    },
    "functionHashes": {
        "approve(address,uint256)": "095ea7b3",
        "balanceOf(address)": "70a08231",
        "getApproved(uint256)": "081812fc",
        "isApprovedForAll(address,address)": "e985e9c5",
        "mintLetsAskNft(string,string)": "2862b147",
        "name()": "06fdde03",
        "ownerOf(uint256)": "6352211e",
        "safeTransferFrom(address,address,uint256)": "42842e0e",
        "safeTransferFrom(address,address,uint256,bytes)": "b88d4fde",
        "setApprovalForAll(address,bool)": "a22cb465",
        "supportsInterface(bytes4)": "01ffc9a7",
        "symbol()": "95d89b41",
        "tokenURI(uint256)": "c87b56dd",
        "transferFrom(address,address,uint256)": "23b872dd"
    },
    "gasEstimates": {
        "creation": {
            "codeDepositCost": "1501000",
            "executionCost": "infinite",
            "totalCost": "infinite"
        },
        "external": {
            "approve(address,uint256)": "infinite",
            "balanceOf(address)": "2634",
            "getApproved(uint256)": "4799",
            "isApprovedForAll(address,address)": "infinite",
            "mintLetsAskNft(string,string)": "infinite",
            "name()": "infinite",
            "ownerOf(uint256)": "2579",
            "safeTransferFrom(address,address,uint256)": "infinite",
            "safeTransferFrom(address,address,uint256,bytes)": "infinite",
            "setApprovalForAll(address,bool)": "26708",
            "supportsInterface(bytes4)": "534",
            "symbol()": "infinite",
            "tokenURI(uint256)": "infinite",
            "transferFrom(address,address,uint256)": "infinite"
        }
    }
}